:100000000C9434000C942B010C942B010C942B01B8
:100010000C942B010C942B010C942B010C942B01B0
:100020000C942B010C942B010C942B010C942B01A0
:100030000C942B010C942B010C942B010C942B0190
:100040000C942B010C942B010C942B010C942B0180
:100050000C942B010C942B010C942B010C942B0170
:100060000C942B010C942B0111241FBECFEFD8E070
:10007000DEBFCDBFE8E6F0E040E017C0B591A59146
:1000800035912591059107FD0CC095918591EF0162
:10009000F92FE82F05900D92A217B307D9F7FE01AB
:1000A00004C01D92A217B307E1F7E836F40731F751
:0C00B0000E9463000C945C00F894FFCFE9
:0A00BC00484F4C41004649454500FD
:1000C600CF93DF93CDB7DEB72A970FB6F894DEBF8E
:1000D6000FBECDBF0E94A7008CE10E94F3008CE109
:1000E6000E94F3008CE10E94F3008CE10E94F30071
:1000F60082E00E94F30061E070E084E090E00E94FC
:1001060021012CEB30E040E085E0F901DE0111969B
:10011600742F0E941401CE0101960E94070162E02D
:1001260070E080E190E00E94210121EC30E040E0A7
:1001360085E0F901DE011696742F0E941401CE01A6
:0801460006960E940701FFCF9D
:10014E0084B1816084B984B1826084B984B18460E1
:10015E0084B984B1886084B984B1806184B984B172
:10016E00806284B984B1806484B984B1806884B9B2
:10017E0087B1816087B987B1826087B987B18460A2
:10018E0087B915B888B18E7F88B988B18D7F88B947
:10019E0088B18B7F88B98FE00E94F30088E30E94BC
:0401AE00F3000895BD
:1001B20098B1916098B985B983EC99E00197F1F70C
:1001C20000C0000088B1846088B981EE94E0019794
:1001D200F1F700C0000088B18B7F88B988B18E7FAB
:0401E20088B908953B
:1001E60085B983EC99E00197F1F700C0000088B16A
:1001F600846088B981EE94E00197F1F700C00000B1
:0802060088B18B7F88B90895CF
:10020E00CF93DF93EC0103C021960E94D900888121
:0A021E008111FACFDF91CF9108950E
:10022800992777FD05C005900D920197E1F708958C
:0A02380001900D920197E1F708957F
:100242006230710511F490EC01C090E8890F0E94B0
:04025200F300089518
:040256000C94000004
:00000001FF
