:100000000C9434000C949B000C949B000C949B006B
:100010000C949B000C949B000C949B000C949B00F4
:100020000C949B000C949B000C949B000C949B00E4
:100030000C949B000C949B000C949B000C949B00D4
:100040000C949B000C949B000C949B000C949B00C4
:100050000C949B000C949B000C949B000C949B00B4
:100060000C949B000C949B0011241FBECFEFD8E092
:10007000DEBFCDBF0E946C000C943E00F894FFCF11
:1000800084B1816084B984B1826084B984B18460B0
:1000900084B984B1886084B984B1806184B984B141
:1000A000806284B984B1806484B984B1806884B981
:1000B00087B1816087B987B1826087B987B1846071
:1000C00087B915B888B18E7F88B988B18D7F88B916
:0800D00088B18B7F88B9089507
:1000D8000E9440008FE00E9487002FE382E49FE0A7
:1000E800215080409040E1F700C0000088E00E9465
:1000F80087002FE382E49FE0215080409040E1F7A1
:0601080000C00000E7CF7B
:10010E0085B983EC99E00197F1F700C0000088B142
:10011E00846088B981EE94E00197F1F700C0000089
:08012E0088B18B7F88B90895A8
:040136000C94000025
:00000001FF
